:020000040800F2
:1000000098100020A1010008C13400084D28000804
:100010008D2C0008910E00083D4C000800000000E7
:100020000000000000000000000000005D3E00082D
:10003000750F000800000000153C0008D9400008BA
:10004000BB010008BB010008BB010008BB010008A0
:10005000BB010008BB010008BB010008BB01000890
:10006000BB010008BB01000855100008BB010008D7
:10007000BB010008BB010008BB010008BB01000870
:10008000BB010008BB010008BB010008BB01000860
:10009000BB010008BB010008BB0100085B100008A1
:1000A000BB010008BB010008BB010008BB01000840
:1000B00081410008BB010008BB010008BB0100082A
:1000C000BB010008BB010008BB010008BB01000820
:1000D000BB010008194C0008254C0008314C0008F1
:1000E000BB010008BB010008BB010008BB01000800
:1000F000BB010008BB010008BB010008BB010008F0
:10010000BB010008BB010008BB010008BB010008DF
:10011000BB010008BB010008BB010008BB010008CF
:10012000BB010008BB010008BB010008BB010008BF
:10013000BB0100080000000000000000BB01000837
:10014000BB010008BB010008BB010008BB0100089F
:10015000BB010008BB010008BB010008BB0100088F
:10016000BB010008BB010008BB010008BB0100087F
:10017000BB010008BB0100080000000000000000F7
:10018000BB010008BB010008DFF810D000F046FBFF
:100190000048004739610008AFF300809810002044
:1001A0000648804706480047FEE7FEE7FEE7FEE711
:1001B000FEE7FEE7FEE7FEE7FEE7FEE77141000827
:1001C000890100082DE9F05F0546002092469B4614
:1001D00088460646814640241BE02846414647465D
:1001E000224600F0A0F953465A46C01A914110D356
:1001F00011461846224600F087F92D1A67EB0108D0
:100200004F4622460120002100F07EF917EB00093D
:100210004E41201EA4F10104DFDC484631462A4647
:100220004346BDE8F09FD2B201E000F8012B491E21
:10023000FBD270470022F6E710B513460A46044683
:100240001946FFF7F0FF204610BD2DE9FE4F80460E
:1002500081EA0300C00F0C46009021F0004123F01A
:100260000045B8EB0200A94105D240462146904620
:100270001C460B46024623F00040104347D0270D92
:10028000C7F30A00C3F30A510290401A01904028B4
:100290006BDAC3F3130040F4801B0098924620B140
:1002A0000023D2EB030A63EB0B0B01985946C0F114
:1002B0004002504600F028F906460D465046594681
:1002C000019A00F040F910EB08006141002487EA30
:1002D000115284EAE7731A4340D0009A62B3019A3C
:1002E000012A4FEA075215DC001B61EB02014FF0B7
:1002F000004202EA0752CDE90042001C41F580119C
:1003000032462B4600F040F903B0BDE8F08F40467E
:100310002146F9E7001B61EB0201001C41F5801347
:1003200000185B412018A2F5001747EB030140EAD3
:10033000D570B6196D4111E06D084FEA360645EAF1
:10034000C0754FEA0752001B61EB0201001C41F52A
:10035000801149084FEA30000019514132462B46BE
:1003600003B0BDE8F04F00F000B900980122400052
:100370000023D0EB020263EBE073009821464FEAC2
:10038000E074B8EB000061EB0401E9E783F000439F
:100390005BE781F0004158E72DE9FE4F81EA030455
:1003A00004F0004421F0004100944FF0000B23F0D2
:1003B000004350EA01045ED052EA03045BD0C3F369
:1003C0000A54C1F30A552C44A4F2F3340194A0FB5F
:1003D0000254C1F3130141F48011C3F3130343F436
:1003E000801301FB024400FB034E840A970A44EA8F
:1003F000815447EA8357A4FB076802958D0A05FBE1
:1004000007854FEA932C04FB0C542705029D4FEA05
:10041000065847EA1637B5EB08056EEB070C870E52
:10042000920E47EA811742EA8312A7FB0201B6EB5C
:100430000B0164EB00042B0D43EA0C335E1844EB14
:100440001C50DA465146E7FB0201C5F313044FEA9C
:100450000B3343EA14534FEA0432019C43EA060388
:10046000A4F10C040294009CCDE900B400F08CF8D7
:1004700003B0BDE8F08F00200146F9E70EB5C10FCB
:1004800080EAE0700844CA07002140F233438DE857
:100490000E000A460B4600F077F803B000BD70B5B9
:1004A000C1F30A5201F000450024C1F3130140F2E8
:1004B000FF3341F480119A4201DA002070BD40F20E
:1004C00033439A42A2F2334203DC524200F02BF84B
:1004D00000E090402C43F1D0404270BD30B50B4657
:1004E000014600202022012409E021FA02F59D4264
:1004F00005D303FA02F5491B04FA02F52844151E38
:10050000A2F10102F1DC30BD202A04DB203A00FA1E
:1005100002F1002070479140C2F1200320FA03F35A
:10052000194390407047202A04DB203A21FA02F058
:100530000021704721FA02F3D040C2F1200291401D
:10054000084319467047202A06DBCB17203A41FAA8
:1005500002F043EAE07306E041FA02F3D040C2F150
:100560002002914008431946704710B5141E73F1DC
:10057000000408DA401C41F1000192185B411A4363
:1005800001D120F0010010BD2DE9F04D92469B46AF
:1005900011B1B1FA81F202E0B0FA80F22032904655
:1005A000FFF7B2FF04460F4640EA0A0041EA0B019A
:1005B00053465A46084313D0114653EA010019D056
:1005C000C8F140025046FFF7AEFF05460E465046C2
:1005D00059464246FFF798FF084305D0012004E042
:1005E00020463946BDE8F08D0020054346EAE07616
:1005F0002C4337430A986305E40AA0EB0800002265
:10060000FD0A44EA47540A3002D500200146E9E7D2
:10061000010510196941DDE9084500196941BDE886
:10062000F04DA2E72DE9F04D81EA030404F0004B00
:1006300021F0004514464FF0000A23F0004150EA33
:10064000050220D054EA01021DD0C5F30A57024624
:10065000C5F31303C1F31300C1F30A5640F4801528
:1006600043F48013A7EB0608101BD64608F2FD38AA
:1006700073EB050002D308F1010801E092185B4119
:10068000B8F1000F03DA00200146BDE8F08D00202C
:100690004FF48011064684460EE0171B73EB0507E6
:1006A00005D3121B63EB050306434CEA010C490812
:1006B0004FEA300092185B4150EA0107EDD152EA4F
:1006C000030012D082EA040083EA0501084305D042
:1006D000101BAB4106D20122002306E000224FF09E
:1006E000004302E06FF0010253101AEB06004CEBDE
:1006F000085110EB0A0041EB0B01BDE8F04DFFF78C
:1007000034BF00002DE9F041054621F000400C46C1
:10071000284309D0C4F30A5040F23341884205DD32
:1007200028462146BDE8F0812846FBE740F2FE312D
:10073000884210DC0CDB4FEA043040EA155050EAE6
:10074000053105D0104804F0004101430020E9E7DD
:1007500000200146E6E7A0F233404642C6F14002DF
:1007600028462146FFF7D0FE074688462846214600
:100770003246FFF7D8FE43463A46FFF7F6FE3246CA
:10078000BDE8F041FFF7C0BE0000F03FC1F30A52E0
:10079000C1F3130140F2FF3341F480119A4202DAAF
:1007A00000200146704740F233439A42A2F233429E
:1007B00002DC5242FFF7B7BEFFF7A6BE30B5041EFB
:1007C00071F1000404DB4FF00044404264EB01018E
:1007D000141E73F1000405DB1C464FF00043524227
:1007E00063EB04038B4208BF824230BD30B5041E68
:1007F00071F1000404DB4FF00044404264EB01015E
:10080000141E73F1000405DB1C464FF000435242F6
:1008100063EB0403994208BF904230BD064C074D7C
:1008200006E0E06840F0010394E8070098471034C0
:10083000AC42F6D3FFF7ACFC98800008B880000803
:1008400070B58C1810F8015B15F0070301D110F892
:10085000013B2A1106D110F8012B03E010F8016BBF
:1008600001F8016B5B1EF9D12B0705D40023521E42
:100870000DD401F8013BFAE710F8013BCB1A921CAA
:1008800003E013F8015B01F8015B521EF9D5A142A8
:10089000D8D3002070BD00007CB50124102310A225
:1008A00000213020009402F0FCFF10250D48CDE916
:1008B00000540268022300213E2002F0BBFF0A48D8
:1008C000CDE90054026802230021642002F0B2FF47
:1008D000102306A200215420009402F0E2FF7CBD08
:1008E000583A00000400002000000020533A0000A5
:1008F0007CB501240021102321A20846009402F0B7
:10090000D0FF102320A200212020009402F0C9FF74
:1009100010231EA200214E20009402F0C2FF1025D9
:100920001B48CDE90054026804230021302002F066
:1009300081FF1848CDE9005402680423002160209B
:1009400002F078FF102314A219461E20009402F032
:10095000A8FF102312A219465A20009402F0A1FF0A
:10096000102311A220211E20009402F09AFF1023D0
:100970000EA220215A20009402F093FF7CBD0000BB
:100980004D61696300000000583A0000533A0000CE
:10099000100000200C0000204C5F555000000000AB
:1009A000525F5550000000004C5F4400525F44000D
:1009B0007CB501240021102324A20846009402F0F3
:1009C00070FF102323A200212020009402F069FF71
:1009D000102321A200214E20009402F062FF102576
:1009E0001E48CDE90054026804230021302002F0A3
:1009F00021FF1B48CDE90054026804230021602038
:100A000002F018FF102317A220210020009402F00A
:100A100048FF102314A219461E20009402F041FF43
:100A2000102313A219465A20009402F03AFF102313
:100A300011A220211E20009402F033FF10230FA2E8
:100A400020215A20009402F02CFF7CBD4D61696387
:100A500000000000583A0000533A00001000002047
:100A60000C0000202D2D3E004C5F55500000000072
:100A7000525F5550000000004C5F4400525F44003C
:100A80007CB501240021102324A20846009402F022
:100A900008FF102323A200212020009402F001FF70
:100AA000102321A200214E20009402F0FAFE10250E
:100AB0001E48CDE90054026804230021302002F0D2
:100AC000B9FE1B48CDE900540268042300216020D0
:100AD00002F0B0FE102317A219460020009402F085
:100AE000E0FE102314A219461E20009402F0D9FE45
:100AF000102313A219465A20009402F0D2FE1023AC
:100B000011A220211E20009402F0CBFE10230FA280
:100B100020215A20009402F0C4FE7CBD4D6169631F
:100B200000000000583A0000533A00001000002076
:100B30000C0000202D2D3E004C5F555000000000A1
:100B4000525F5550000000004C5F4400525F44006B
:100B50007CB501240021102324A20846009402F051
:100B6000A0FE102323A200212020009402F099FE71
:100B7000102321A200214E20009402F092FE1025A5
:100B80001E48CDE90054026804230021302002F001
:100B900051FE1B48CDE90054026804230021602067
:100BA00002F048FE102317A220213620009402F004
:100BB00078FE102314A219461E20009402F071FE44
:100BC000102313A219465A20009402F06AFE102343
:100BD00011A220211E20009402F063FE10230FA218
:100BE00020215A20009402F05CFE7CBD4D616963B7
:100BF00000000000583A0000533A000010000020A6
:100C00000C0000202D2D3E004C5F555000000000D0
:100C1000525F5550000000004C5F4400525F44009A
:100C20007CB501240021102324A20846009402F080
:100C300038FE102323A200212020009402F031FE70
:100C4000102321A200214E20009402F02AFE10253C
:100C50001E48CDE90054026804230021302002F030
:100C6000E9FD1B48CDE900540268042300216020FF
:100C700002F0E0FD102317A219463620009402F07E
:100C800010FE102314A219461E20009402F009FE43
:100C9000102313A219465A20009402F002FE1023DA
:100CA00011A220211E20009402F0FBFD10230FA2B0
:100CB00020215A20009402F0F4FD7CBD4D6169634F
:100CC00000000000583A0000533A000010000020D5
:100CD0000C0000202D2D3E004C5F55500000000000
:100CE000525F5550000000004C5F4400525F4400CA
:100CF00010B5084C01222021204600F084FB4FF45F
:100D0000967000F00BFA20460022BDE8104020212A
:100D100000F079BB0008024038B5012400211023FF
:100D200010A20846009402F0BCFD10230FA2194641
:100D30000020009402F0B5FD10230DA219462820D2
:100D4000009402F0AEFD10230DA220212820009473
:100D500002F0A7FD10230DA230212820009402F0FC
:100D6000A0FD38BD54657374000000002D2D3E00B9
:100D70004269616E4B75616E675F526F616400001E
:100D8000426C616E6B5F526F616400005849414F65
:100D90005F59616E0000000038B501240021102366
:100DA00010A20846009402F07CFD10230FA230210F
:100DB0000020009402F075FD10230DA21946282092
:100DC000009402F06EFD10230CA220212820009434
:100DD00002F067FD10230CA230212820009402F0BD
:100DE00060FD38BD54657374000000002D2D3E0079
:100DF000426C616E6B5F526F616400005849414FF5
:100E00005F59616E00000000424B5F5449414F0042
:100E100038B501240021102310A20846009402F0E6
:100E200040FD10230FA220210020009402F039FD84
:100E300010230DA219462820009402F032FD102341
:100E40000DA220212820009402F02BFD10230DA2DA
:100E500030212820009402F024FD38BD54657374BD
:100E6000000000002D2D3E004269616E4B75616EE1
:100E7000675F526F61640000426C616E6B5F526F1E
:100E8000616400005849414F5F59616E00000000E5
:100E9000FEE700007CB501240021102327A20846AC
:100EA000009402F0FEFC102326A2002130200094C2
:100EB00002F0F7FC1025244ECDE900540223002156
:100EC0003E20326802F0B6FCCDE900540223002136
:100ED0006420726802F0AEFC10231CA20021542092
:100EE000009402F0DEFC102319A2302100200094AF
:100EF00002F0D7FC102317A219461E20009402F01E
:100F0000D0FC102315A219465A20009402F0C9FC07
:100F1000102314A220211E20009402F0C2FC1023F2
:100F200011A220215A20009402F0BBFC10230FA232
:100F300030211E20009402F0B4FC7CBD5265645F39
:100F400043000000583A00005C000020593A0000BD
:100F50002D2D3E004C5F555000000000525F555053
:100F6000000000004C5F4400525F440043656E7413
:100F700065720000704700007CB50124102325A293
:100F800000213020009402F08CFC10252248CDE98D
:100F900000540268022300213E2002F04BFC1F484F
:100FA000CDE90054026802230021642002F042FCD3
:100FB00010231BA200215420009402F072FC002197
:100FC000102318A20846009402F06BFC102317A20D
:100FD00030210020009402F064FC102314A2194672
:100FE0001E20009402F05DFC102312A219465A2024
:100FF000009402F056FC102310A220211820009427
:1010000002F04FFC102310A230211820009402F0AF
:1010100048FC7CBD583A000004000020000000207D
:10102000533A000044756F6A690000002D2D3E00A0
:10103000786961005368616E67000000416E676CFB
:10104000655F416464000000416E676C655F4465E4
:1010500067000000102000F0C5B8202000F0C2B8E2
:1010600072B6FEE72DE9F0410446876D00F0D0F935
:10107000064694F835000025022806D080206065D9
:1010800084F834500120BDE8F0812068016821F027
:10109000160101602068416921F080014161206CE6
:1010A00008B9A06C20B12068016821F00801016036
:1010B0002068016821F0010101600CE000F0A8F94E
:1010C000801B052807D920206065032084F835009F
:1010D00084F83450D7E720680068C007EED194F850
:1010E0005C103F208840B860012084F8350084F807
:1010F00034500020C7E790F83510022903D0802132
:10110000416501207047052180F8351000680168AD
:1011100021F00101016000207047000070B5044615
:1011200000F076F90546601C02D0044800780444BB
:1011300000F06EF9401BA042FAD370BD640000209D
:101140002DE9F0470027DFF87C901F4C1F4D064625
:101150004FF40058102802D0202E16D02EE0102177
:10116000284600F043F948BB4146484600F043F9A1
:10117000206838B127601021284600F037F9002890
:10118000F9D01BE001202060F5E72021284600F07F
:101190002DF998B94146484600F02DF90C480E4A01
:1011A00007600C482760416811600C4900680860BE
:1011B0002021284600F01AF90028F9D008480660D6
:1011C000BDE8F0870008024048000020000002400F
:1011D0007C00002088030020080C00202C0C00203C
:1011E000143C0140044910B50A68024202D008606C
:1011F000FFF7A6FF10BD0000143C01402DE9F84F99
:10120000DFF8BCA10022012503264FF00F090AF1E7
:10121000040BAAF1040E00BF0B6805FA02F4234088
:10122000A34270D10F7907F00307012F01D0022FDD
:1012300016D187684FEA420806FA08FC27EA0C072D
:10124000D1F80CC00CFA08FC4CEA070CC0F808C036
:101250004768A7430C79C4F3001494403C434460AE
:101260000C79E443A4070AD0C4684FEA420C06FA9A
:101270000CF7BC438F6807FA0CF72743C7600C795B
:1012800004F00304022C12D1D40800EB840CDCF827
:1012900020405707FF0E09FA07F824EA0804D1F89E
:1012A000108008FA07F848EA0408CCF8208004689F
:1012B0004FEA420C06FA0CF7BC430F7907F003071C
:1012C00007FA0CF7274307604C6814F4403F70D0CE
:1012D0003C4C276847F480472760246822F00307C6
:1012E00004F480440094384C07EB040CDCF8084804
:1012F00097074FEA177809FA08F7BC43334FB8420B
:1013000002D1002724E054E0314FB84201D1012737
:101310001EE0304FB84201D1022719E02E4FB842EB
:1013200001D1032714E02D4FB84201D104270FE06B
:101330002B4FB84201D105270AE02A4FB84201D10C
:10134000062705E0284FB84201D1072700E008270B
:1013500007FA08F72743CCF80878DAF80040574630
:10136000D1F804C09C435FEACC2C00D51C433C6000
:10137000DBF800405F46D1F804C09C435FEA8C2C48
:1013800000D51C433C60DEF800407746D1F804C02D
:101390009C435FEA8C3C00D51C433C60084F083FEF
:1013A0003C68D1F804C09C435FEACC3C00D51C43A8
:1013B0003C60521C102AFFF42FAFBDE8F88F0000EC
:1013C000083C014044380240003001400000024027
:1013D0000004024000080240000C024000100240DD
:1013E0000014024000180240001C0240006908403E
:1013F00000D001207047426921EA02030A4043EA13
:101400000241816170470AB1816170470904FBE7BD
:10141000014880687047000064000020024881682D
:101420000278114481607047640000200B4810B5B9
:10143000016841F400710160016841F4806101605C
:10144000016841F480710160032000F06FF8022010
:1014500000F006F800F024F8002010BD003C024027
:1014600070B50D4D04464FF47A712878B1FBF0F059
:101470000A490968B1FBF0F000F00AFB48B9102CEA
:1014800007D200222146501E00F030F800206C6088
:1014900070BD012070BD00006400002070000020BD
:1014A0000A4808B5016841F480410160006800F411
:1014B000804000900548001F016841F080510160A4
:1014C000006800F08050009008BD000044380240E1
:1014D000002809DB00F01F02012191404009800033
:1014E00000F1E020C0F8001170470000F0B40E4B8E
:1014F0001B680C46C3F30223C3F10705042D00D972
:101500000425191D072901D2002300E0DB1E012656
:1015100006FA05F1491E214099409E40761E16406C
:101520003143F0BC03F01CBF0CED00E0064900F0B5
:10153000070208684FF6FF03184040EA0220034AFA
:1015400010430860704700000CED00E00000FA0551
:101550002DE9F0470E46050065D0DFF81481D8F874
:101560000000F7B200F00700B04207D288F8007020
:10157000D8F8000000F00700B04254D128683D4C74
:10158000810712D5400703D5206840F4E050206061
:101590002878000703D5206840F460402060206868
:1015A000A96820F0F000084320602878C0072DD0FB
:1015B000304968680839012812D0022813D003285E
:1015C00011D00968890700292DDA216821F003016B
:1015D00001432160FFF71CFF814641F2883A0EE08B
:1015E00009688903EFE709688901ECE7FFF710FF55
:1015F000A0EB0901514502D90320BDE8F08720681E
:10160000696800F00C00B0EB810FEFD1D8F8001042
:10161000404601F00701B14207D90770006800F0A9
:101620000700B04201D00120E7E72878400705D540
:101630002068E96820F4E05008432060287800071B
:1016400006D52068296920F4604040EAC100206086
:1016500000F038F82168084AC1F30311515CC84012
:101660000649086006480068FFF7FAFE0020C4E754
:10167000003C024008380240106200087000002060
:10168000680000200448054900680968044AC1F35D
:101690008221515CC8407047700000200838024029
:1016A000206200080448054900680968044AC1F33B
:1016B0004231515CC8407047700000200838024039
:1016C00020620008154810B5006810F00C0214489C
:1016D00013D04110042A0FD0082A0ED10F4C241F1A
:1016E0002268236802F03F025B0207D52068C0F33E
:1016F0008810A0FB010106E0084610BD2168C1F377
:101700008811A1FB00010023FEF75CFD2168C1F3F5
:101710000141491C4900B0FBF1F010BD08380240FE
:101720000024F4002DE9F84F04006ED02078DFF893
:101730004C93C007A9F104054AD009F104000168DF
:10174000C1F38101012908D00068C0F3810002289B
:101750000AD1D9F80000400206D52868800337D5A1
:1017600060680028E1D033E06068B0F5803F10D0B9
:10177000B0F5A02F286810D020F4803028602868A9
:1017800020F4802028606068A8B1FFF741FE06467B
:101790000DE0286840F48030F4E740F480202860B1
:1017A000F7E700BFFFF734FE801B642873D8286872
:1017B0008003F7D50CE0FFF72BFE064605E000BFDF
:1017C000FFF726FE801B6428F0D828688003F7D432
:1017D0002078DFF8AC8280074FF0000A3ED5A7489A
:1017E000001D016811F00C0F08D00068C0F38100E3
:1017F00002280BD1D9F80000400207D428688007DE
:1018000016D5E068012800D112E033E1E068B8B1F4
:101810000120C8F80000FFF7FBFD064605E000BF09
:10182000FFF7F6FD801B0228C0D828688007F7D58F
:101830002868216920F0F80040EAC10028600DE026
:10184000C8F800A0FFF7E4FD064604E0FFF7E0FD5E
:10185000801B02281FD828688007F7D4207800074B
:1018600022D5864F87486169703771B101210160C7
:10187000FFF7CEFD064604E0FFF7CAFD801B0228F5
:1018800009D838688007F7D50EE0C0F800A0FFF748
:10189000BFFD064605E082E0FFF7BAFD801B022887
:1018A0007DD838688007F7D42078400768D5DFF8FE
:1018B000CCB100270BF13C0BDBF80000C0000BD4CF
:1018C000DBF8001041F08051CBF80010DBF800008D
:1018D000012700F0805000906B4E3068C00510D496
:1018E000306840F480703060FFF792FD009005E0B2
:1018F000FFF78EFD0099401A022850D83068C005C5
:10190000F6D55E4EA0686C3601280FD005283068E9
:1019100010D020F001003060306820F0040030600A
:10192000A068B8B1FFF774FD00900FE0306840F098
:101930000100F4E740F004003060F7E7FFF768FDCE
:101940000099411A41F28830814266D83068800798
:10195000F4D50EE0FFF75CFD009007E0FFF758FDBF
:101960000099411A41F28830814256D83068800788
:10197000F4D42FB1DBF8001021F08051CBF8001027
:10198000A069C8B33D49091D0968C1F38101022955
:101990004AD00228504607D0C8F8600000E03CE07A
:1019A000FFF736FD04463BE04746C8F86000FFF706
:1019B0002FFD064605E000BFFFF72AFD801B022829
:1019C0002BD828688001F7D4D4E907010843A16A1D
:1019D0002E4A490802EB0141626A41EA821108433A
:1019E00094F82C1040EA0161C9F800100120386613
:1019F000FFF70EFD044606E03EE000BFFFF708FDDE
:101A0000001B022809D828688001F7D534E000BF00
:101A1000FFF7FEFC001B022802D90320BDE8F88F67
:101A200028688001F4D427E00128F7D0D9F8000015
:101A3000E26900F4800191421CD1226A00F03F016A
:101A4000914217D147F6C071626A0140B1EB821F23
:101A500010D1A26A4FF0FF3300F4403103EB520281
:101A6000B1EB024F06D194F82C1000F07060B0EB8F
:101A7000016F01D00120D1E70020CFE704380240F8
:101A800000004742800E4742007000400000FFFF08
:101A900010B5401EB0F1807F01D3012010BD4FF082
:101AA000E02460610F21601703F05AFC0020A06160
:101AB00007202061002010BD7047704710B590F8D6
:101AC0003C20012A22D0012280F83C20CA688C6880
:101AD00022F4407222434C6822F4806222430C6854
:101AE00022F4006222430C6922F4805222434C69A2
:101AF00022F400522243C969002322F480420A439F
:101B000001684A6480F83C30002010BD022010BDFE
:101B100070B590F83C20012A32D0012480F83C4076
:101B2000022280F83D2003685A689D6822F0700602
:101B30000A6832435A60134B02689A4214D0B2F1D9
:101B4000804F11D0104B9A420ED0104B9A420BD0BE
:101B50000F4B9A4208D00F4B9A4205D00E4B9A4237
:101B600002D00E4B9A4204D1496825F080031943F4
:101B7000916080F83D40002180F83C10084670BD1F
:101B8000022070BD00000140000400400008004039
:101B9000000C0040000401400040014000180040DB
:101BA00010B5040003D094F83D0010B107E0012007
:101BB00010BD002084F83C00204600F01FF80220F1
:101BC00084F83D00211D206802F0E0FA012084F82D
:101BD000460084F83E0084F83F0084F8400084F812
:101BE000410084F8420084F8430084F8440084F8FB
:101BF000450084F83D00002010BD000008B50068D5
:101C0000B0F1804F12D10A48016841F00101016032
:101C10000068002200F00100009001211C20FFF765
:101C200065FCBDE808401C20FFF752BC08BD000061
:101C30004038024090F83D10012901D00120704742
:101C4000022180F83D100168CA6842F00102CA60B2
:101C500000681149884214D0B0F1804F11D00F496B
:101C600088420ED00E4988420BD00E49884208D0D7
:101C70000D49884205D00D49884202D00C4988425E
:101C800004D1816801F00701062903D0016841F001
:101C90000101016000207047000001400004004085
:101CA00000080040000C00400004014000400140DA
:101CB0000018004070B5044690F83C00002501284B
:101CC00017D0012684F83C60022084F83D0020688B
:101CD000826822F0770222F47F42826008685028EE
:101CE00038D00DDC20284FD005DC90B3102811D15E
:101CF0004AE0022070BD302846D040280AD13BE09F
:101D000060282FD070280DD0B0F5805F03D0B0F5DB
:101D1000005F12D0012584F83D60002084F83C006B
:101D2000284670BDCB68D1E90121206802F09FFAF6
:101D30002068816841F0770109E0CB68D1E9012191
:101D4000206802F094FA2068816841F48041816043
:101D5000E1E719E0CA684968206802F05DFB50219C
:101D6000206806E0CA684968206802F066FB6021C6
:101D7000206802F086FACEE7CA684968206802F057
:101D80004BFB40212068F4E7226801461046F0E74B
:101D9000704770B50446006801694FF00005C943FB
:101DA000890715D4C168C943890711D4E91E0161A7
:101DB00001202077206880698007204602D0FFF745
:101DC000E7FF04E000F0D6F8204600F089F9257717
:101DD00020680169C943490717D4C168C943490745
:101DE00013D46FF00401016102202077206880691C
:101DF00010F4407F204602D0FFF7CAFF04E000F055
:101E0000B9F8204600F06CF9257720680169C943CC
:101E1000090716D4C168C943090712D46FF0080135
:101E20000161042020772068C0698007204602D025
:101E3000FFF7AEFF04E000F09DF8204600F050F9F7
:101E4000257720680169C943C90617D4C168C94309
:101E5000C90613D46FF010010161082020772068B3
:101E6000C06910F4407F204602D0FFF791FF04E0E4
:101E700000F080F8204600F033F9257720680169EA
:101E8000C943C90708D1C168C943C90704D1891E1C
:101E90000161204600F08AF920680169C9430906FA
:101EA00009D4C168C943090605D46FF080010161F6
:101EB0002046FFF701FE20680169C943490609D49D
:101EC000C168C943490605D46FF04001016120464D
:101ED00000F0E2F920680169C94389060BD4C168A2
:101EE000C943890607D46FF0200101612046BDE88F
:101EF0007040FFF7E2BD70BD30B587B004461421D5
:101F00006846FEF797F92468164D0021164A022309
:101F10001648AC4210D1146844F0010414601268F1
:101F200002F0010205924FF410620092CDE90131F6
:101F300003910121049110E00D4DAC4210D11468C1
:101F400044F001041460126802F0010205920322B9
:101F50000092CDE90131CDE903136946FFF74EF94F
:101F600007B030BD000001403038024000000240A0
:101F7000000C0040704770B5044690F83C00002605
:101F80000D4601280FD0012084F83C006AB1042AD4
:101F90001DD0082A2FD00C2A3FD00126002084F81B
:101FA0003C00304670BD022070BD206802F072F91E
:101FB0002068816941F0080181612068816921F010
:101FC00004018161206881692A69114311E0206858
:101FD00002F090F92068816941F400618161206814
:101FE000816921F480618161206881692A6941EAFF
:101FF00002218161D2E7206802F0B2F92068C1694C
:1020000041F00801C1612068C16921F00401C1618A
:102010002068C1692A69114311E0206802F0D4F9EF
:102020002068C16941F40061C1612068C16921F47F
:102030008061C1612068C1692A6941EA0221C161E8
:10204000ACE710B5040003D094F83D0010B107E0F0
:10205000012010BD002084F83C00204600F01EF84E
:10206000022084F83D00211D206802F08FF8012035
:1020700084F8460084F83E0084F83F0084F840006D
:1020800084F8410084F8420084F8430084F8440056
:1020900084F8450084F83D00002010BD08B50068B4
:1020A0000C49884208D10C48016841F001010160E7
:1020B000006800F001000BE00849884209D1064899
:1020C000001F016841F008010160006800F008008D
:1020D000009008BD0000014044380240000C004060
:1020E0007047000010B50446022249B104290ED001
:1020F000082913D094F84100012816D0012010BD02
:1021000094F83E000128F9D184F83E200FE094F8BD
:102110003F000128F2D184F83F2008E094F8400005
:102120000128EBD184F8402001E084F8412001220D
:10213000206802F08FF816492068164A884201D0BC
:10214000904203D1436C43F40043436420688842C7
:1021500013D0B0F1804F10D00F4988420DD00F49F5
:1021600088420AD00E49884207D0904205D00D49D6
:10217000884202D00C49884204D1816801F00701ED
:10218000062903D0016841F001010160002010BD63
:10219000000001400004014000040040000800402D
:1021A000000C004000400140001800402DE9F047BD
:1021B0002E49884258D12E4CA068401CA06001F0E6
:1021C00005FCA0684FF4FA7190FBF1F201FB1200DC
:1021D000002849D1DFF89C80274E284FD8F800000E
:1021E0004FF00009012832D104F1140524A0D5E9EB
:1021F000001203F0A5F8244869680068401A00D569
:10220000404202280ADC214829680068401A00D5AB
:102210004042022802DC0120206016E02068A0B9BC
:102220001B48006848B91948296801F083FCE06040
:102230001548696801F0B6FC206130682169401AD0
:1022400030603868E168401A3860C8F8009020684B
:1022500040B9606830B90F4831680268116400689D
:1022600039684163C4F80890BDE8F087DC030020BA
:10227000480000207C0300200C00002010000020FB
:1022800025642C25640A0D00080C00202C0C00206D
:102290007C000020940300207047704770470000C6
:1022A000F8B5016804460868CA684B6910F00F0F5A
:1022B0004FF0000559D003F0010602F49077374340
:1022C00065D0C10705D0D10503D5216C41F00101CE
:1022D0002164410705D5D90703D0216C41F00201E3
:1022E0002164810705D5D90703D0216C41F0040191
:1022F0002164010707D502F02001314303D0216C8E
:1023000041F008012164216C00293AD0800604D5EF
:10231000900602D5204602F03EFB20684069216C01
:10232000C0F38010090700D460B3204602F00CFB14
:1023300020684069400621D52068143050E8001F0D
:1023400021F0400140E80012002AF5D1A06BA8B1AD
:102350006C490165A06BFEF7CEFE002811D0A06B82
:10236000016D01B0BDE8F040084783060FD5930624
:102370000DD52046BDE8F84002F00DBB2046FFF722
:102380008DFFF8BD2046FFF789FF2564F8BD266B59
:102390002023012E79D1C60677D5D60675D50868D3
:1023A000486800904869400640D5A16B08684068BD
:1023B0000004000CEAD0A28D8242E7D9E085C8690A
:1023C000B0F5807F2DD020680C3050E8001F21F43C
:1023D000807140E80012002AF5D12068143050E8DE
:1023E000001F21F0010140E80012002AF5D1206809
:1023F000143050E8001F21F0400140E80012002A8C
:10240000F5D184F83E30256320680C3050E8001F79
:1024100021F0100140E80012002AF5D1A06BFEF770
:1024200021FEA08DE18D401A81B229E0A08DE18DC1
:10243000401A81B2E08D0028A8D00029A6D02068DB
:102440000C3050E8002F22F4907240E80026002E55
:10245000F5D12068143050E8002F22F0010240E846
:102460000026002EF5D184F83E30256320680C301C
:1024700050E8002F22F0100240E80023002BF5D195
:102480002046FFF70AFFF8BDFFE705062BD5150626
:1024900029D594F83D002128F5D1A068B0F5805FDA
:1024A00001D12069B0B1206A411C21622168007805
:1024B0004860E08C401E0004000CE084E3D12068FA
:1024C000C16821F08001C1602068C16841F040010D
:1024D000C160D8E7206A0088C0F308004860206A1D
:1024E000801C2062E5E74006CDD55006CBD5CA68F2
:1024F000204622F04002CA6084F83D3000F0A5F981
:10250000C1E700003949000870B5040004D094F810
:102510003D00002510B106E0012070BD84F83C505C
:10252000204600F023F8242084F83D002068C1688C
:1025300021F40051C160204602F08EFA2068016942
:1025400021F4904101612068416921F02A01416133
:102550002068C16841F40051C1602564202084F8DE
:102560003D0084F83E00002070BD0000F0B587B04B
:10257000044614216846FDF75DFE3D4B27680022A6
:102580003C490224032507263B489F4221D1394B71
:1025900014331F6847F010071F601B6803F0100317
:1025A00005930B6843F001030B60096802AB01F06F
:1025B000010105916902CDE9001483E864006946D0
:1025C000FEF71CFE002201212520FEF78FFF2520AB
:1025D00024E0284BDFF8A4C01033674522D11F68E0
:1025E00047F400371F601B6803F4003305930B6842
:1025F00043F001030B60096802AF01F0010105918E
:102600000C21CDE9001487E864006946FEF7F6FD69
:10261000002201212620FEF769FF2620FEF758FF41
:1026200007B0F0BD16488742FAD1186840F4802000
:102630001860186800F480200590086840F00200D7
:102640000860086802AF00F0020005904FF4406097
:10265000CDE9000487E8640069460A48FEF7CEFD2C
:10266000002201212720FEF741FF2720D6E70000A6
:102670000010014030380240000002400044004099
:10268000004800400004024090F83E30202B0ED15C
:1026900059B152B190F83C30012B08D0012380F899
:1026A0003C300023036302F05DBA01207047022032
:1026B000704700002DE9F0410068304900250C26E4
:1026C0002F4C884225D1618808041AD422462D4B0C
:1026D000508812784F04C0F30D0009D50C2A04D09D
:1026E0001E54401C1A54401C11E041F400400EE0FE
:1026F0000B2A0AD01A54491C88B26080632800D97A
:10270000658001221E4920482EE041F4804060800F
:10271000F7E71E4988422FD141141D48FEF76BFE92
:10272000A08801041CD442041649627801F1C80152
:102730000BD50C2A06D0C0F30D000E54401C0A54D1
:10274000401C17E040F4004014E00B2A10D0C0F306
:102750000D03401C80B2CA54A080632800D9A58014
:10276000074901220B48491CBDE8F041FFF78CBF27
:1027700040F48040A080F3E7BDE8F0810010014004
:10278000740000201C0A00206C0400200048004057
:1027900000080240F40400202DE9F843044690F8B4
:1027A0003D001F4616460D4620284CD1C5B1BEB18E
:1027B00094F83C00012846D0012084F83C004FF0FA
:1027C0000008C4F84080212084F83D00FEF720FE78
:1027D000A6848146E684A068B0F5805F03D004E05B
:1027E0000120BDE8F883206928B12E465FF000057E
:1027F00084F83C800EE00026FAE78021204602F0B3
:10280000CEF9A0B9AEB116F8010B21684860E08C92
:10281000401EE084E08C4B464FF0000200970028F9
:10282000EBD14FF04001204602F0B9F930B103205E
:10283000D7E735F8020BC0F30800E6E7202084F85C
:102840003D000020CDE70220CBE77047FEE7000007
:1028500010B50E4C012202212046FEF7D4FD0122C4
:1028600011462046FEF7CFFD00F046F80022022177
:102870002046FEF7C8FD00F03FF800220121204667
:10288000FEF7C1FDBDE8104000F036B8000402407C
:1028900010B50A4C002202212046FEF7B4FD0122A9
:1028A00011462046FEF7AFFD00F026F82046012233
:1028B000BDE810400221FEF7A6BD00000004024062
:1028C00010B50C4C012202212046FEF79CFD00F0C1
:1028D00013F8012211462046FEF795FD00F00CF892
:1028E000002201212046FEF78EFDBDE8104000F0D9
:1028F00003B80000000402400A20401EC0B2FCD20F
:10290000704700002DE9F04387B014216846FDF7B9
:1029100091FC49480024016841F00401016001680C
:1029200001F004010591016841F080010160016836
:1029300001F080010591016841F001010160016829
:1029400001F001010591016841F002010160016897
:1029500001F002010591016841F008010160006881
:10296000DFF8D89000F008000590002242F2200124
:102970004846FEF748FDDFF8C880012203214046A3
:10298000FEF741FD4FF40047002239464046FEF76E
:102990003AFDB81000900125CDE90154694648463A
:1029A0000394FEF72BFC302000904FF40410CDE987
:1029B000010569462348FEF721FC20200326CDE9C6
:1029C0000005CDE9024669464846FEF717FC11208E
:1029D000CDE90060CDE9025669464046FEF70EFC9F
:1029E0000097CDE90154694640460394FEF706FC82
:1029F0004FF4E050CDE90004694648460294FEF7E2
:102A0000FDFB0420CDE9000469460F480294FEF75F
:102A1000F5FB002211460A20FEF768FD0A20FEF7AA
:102A200057FD002211461720FEF760FD1720FEF724
:102A30004FFD07B0BDE8F083303802400008024087
:102A40000004024000000240000C024010B592B0A9
:102A500000240F941C2168461094FDF7EBFB202105
:102A600007A8FDF7E7FB244822490160A721C0E938
:102A7000011444F62061C0E9031444618461FFF746
:102A8000E0FA08B1FEF7ECFA0F940FA91A48109477
:102A9000FFF73EF808B1FEF7E3FA6020CDE9000445
:102AA0000294039404940594002269461248069403
:102AB000FFF761FA08B1FEF7D3FA0C2269460E4817
:102AC000FFF759FA08B1FEF7CBFA07940894099476
:102AD0004FF400500A94CDE90B4007A906480E9424
:102AE000FEF7ECFF08B1FEF7BBFA0348FFF704FA64
:102AF00012B010BD000001409403002010B586B054
:102B000000241648009401940294039404944FF016
:102B10008041059401605321C0E901146321C0E99B
:102B2000031480218161FFF73BF808B1FEF798FAA2
:102B30004FF48050009069460848FFF7BBF808B191
:102B4000FEF78EFA049404A904480594FEF7E0FF0A
:102B5000002801D0FEF784FA06B010BDDC03002087
:102B600010B58AB0002407941C2168460894FDF72C
:102B700061FB1A48184901601321C0E90114184982
:102B8000C0E903148461FFF75CFA08B1FEF768FA44
:102B9000079407A911480894FEF7BAFF08B1FEF799
:102BA0005FFA6020CDE900040294002269460B48D8
:102BB0000494FFF7E0F908B1FEF752FA04226946DF
:102BC0000648FFF7D8F908B1FEF74AFA0348FFF7BD
:102BD00093F90AB010BD0000000C0040240400204E
:102BE000204801000C4810B50A4901604FF4E1315A
:102BF0004160002181600C22C160C0E90412816142
:102C0000C161FFF781FC002803D0BDE81040FEF74A
:102C100027BA10BD001001406C0400200C4810B50C
:102C20000A4901604FF4E1314160002181600C22CA
:102C3000C160C0E904128161C161FFF765FC002831
:102C400003D0BDE81040FEF70BBA10BD00440040B1
:102C5000B00400200C4810B50A4901604FF4E1317E
:102C60004160002181600C22C160C0E904128161D1
:102C7000C161FFF749FC002803D0BDE81040FEF712
:102C8000EFB910BD00480040F4040020FEE700004A
:102C90002DE9FE4F00F0C0FCFF4C4FF48067394631
:102CA0002046FEF7A3FBFD4EDFF8F4A3DFF8F49314
:102CB0004FF40068A514A0B141462046FEF796FBEC
:102CC00078B129462046FEF791FB50B104213046E9
:102CD000FEF78CFB28B12021F348FEF787FB002884
:102CE00065D139462046FEF781FB78B9EF48017877
:102CF00001EB41020AEB8201497801703946204616
:102D0000FEF774FB0028F9D000F0DCFB4746414693
:102D10002046FEF76BFB78B9E448017801EB4102ED
:102D20000AEB82018978017039462046FEF75EFB86
:102D30000028F9D000F0C6FB29462046FEF756FBD6
:102D4000A0B9DA48017801290ED001EB41020AEB63
:102D500082010979017029462046FEF747FB0028C9
:102D6000F9D000F0AFFB01E0FDF7C2FF04213046CF
:102D7000FEF73CFB0028B3D104213046FEF736FBBA
:102D80000028F9D0C94DC64AC94B95F800C0C94EB4
:102D9000E646C948DFF824B3C94C283A0027ACF10D
:102DA000060C4FF40041BCF1250F7DD200E05EE13E
:102DB000DFE80CF0137A7A7A7A252E38407A7A2175
:102DC0007A4C525A8A7A7A7A7AC8CFDBE2F37AF965
:102DD000FFEFEE7AEDECEBEAE900B148BB492C38A5
:102DE0000760B8480760B84842680A600168B84898
:102DF0000160FDF77DFF00F065FB012008E1186828
:102E0000012803D0B3480168491C07E0B248FAE73B
:102E10001868012804D0AF480168491E01600FE01E
:102E2000AD48F9E71868012802D03068401C06E078
:102E3000AA48E8E71868012806D03068401E3060CC
:102E4000D9F80000804712E1A448E5E70122FEF727
:102E5000DAFAFDF74DFF0AE10022FEF7D4FAFDF79A
:102E600047FF00F057FD02E10122FEF7CCFA95483A
:102E70005E46DFF82CB20025B846ABF12C0B07609C
:102E80009348CBF8008056F83520026006EBC50762
:102E90008E487968016092A0216802F051FA56F8D4
:102EA00035002168081A00E0D9E000D54042022828
:102EB00007DC60687968401A00D54042022800DCCF
:102EC0006D1C052DDCD1D2E087494FF0010B7D4D03
:102ED000C1F800B0002129607149DFF810822C3957
:102EE0000520C1F800B00090D1E901015C46CDE9B0
:102EF00001016B48283800EBC400D0E9006711E0FD
:102F0000286860B901AA3946304603F061F9D8F85B
:102F1000002001995163D8F800000299016419203A
:102F2000FEF7FCF80198B042EAD10298B842E7D126
:102F30000098641C8442DCDB6B4900200860C5F803
:102F400000B094E02168CBF818106168CBF81C1031
:102F500007E02168CBF800106268CBF80420CBE9C9
:102F6000081200F0AFFA1A2052E02168CBF81010D6
:102F70006168CBF81410F4E72168CBF80810616899
:102F8000CBF80C10EDE766E055E043E031E025E0DA
:102F90001EE017E00DE006E0FFE74B482168016006
:102FA00061684160DDE74B48006890613068D0613E
:102FB00004E04848006810603068506000F082FA11
:102FC000202025E043480068106130685061F5E733
:102FD0004048006890603068D060EFE73948304979
:102FE00007602C39012008603A480168491E0160D9
:102FF00008E034482A4907602C390120086030680D
:10300000401C30601420FEF789F800F05BFA2A209B
:1030100028702CE02B48224907602C3901200860D9
:103020002C480168491C01601420FEF777F800F075
:1030300049FA2A2028702348194907602C390120B1
:1030400008603068401E30601420FEF767F800F01A
:1030500039FA2A2028701B490120086007E00EEB8E
:103060004E010AEB8100C078287000F02BFA0F4C5B
:103070001F4D20782978884209D000EB40010AEBE7
:1030800081008068C9F80000804720782870207887
:103090001A284CD01B282DE000080240000C0240EA
:1030A000A80000204400002000000240140000207E
:1030B000080000200C000020000402401C0000203A
:1030C0005C0000204800002088030020080C00203D
:1030D0002C0C002010000020040000200000002024
:1030E00025642C25640A00004C0000209403002075
:1030F000180000201BD01C2819D01D2817D01E280E
:1031000015D0202813D0212811D022280FD0232811
:103110000DD024280BD0252809D0262807D0272811
:1031200005D0282803D0292801D02A280ED100EB69
:1031300040010AEB81004C468068C9F8000000F0AD
:103140006BFA206803B0BDE8F04F0047BDE8FE8F82
:103150002DE9FC413448334E026831685163334FE6
:103160000068396801640124102331A20021202065
:10317000009400F096FB10232EA200214E20009414
:1031800000F08FFB2C481025006801283BD0CDE9CA
:103190000054042300213020326800F04BFBCDE9BD
:1031A00000543A6804230021602000F043FB002112
:1031B000102304220846009400F0D4FA10230522BC
:1031C00000211846009400F0CDFA10231BA21946E6
:1031D0001E20009400F065FB102319A219465A2006
:1031E000009400F05EFB102317A220211820009409
:1031F00000F057FB102317A230211820009400F094
:1032000050FBBDE8FC811648CDE900540268032359
:103210000021302000F00EFB1248CDE900540323BA
:103220000268C0E710000020940300200C0000207A
:10323000583A0000533A0000080000207869610005
:103240005368616E67000000416E676C655F4164A2
:1032500064000000416E676C655F446567000000B4
:1032600004000020000000202DE9FC413848374EC2
:10327000026831685163374F00683968016401247E
:10328000102335A200212020009400F00AFB102317
:1032900032A200214E20009400F003FB304810259C
:1032A0000068012842D0CDE90054042300213020D9
:1032B000326800F0BFFACDE900543A6804230021D7
:1032C000602000F0B7FA0021102304220846009481
:1032D00000F048FA1023052200211846009400F05F
:1032E00041FA10231FA219463620009400F0D9FAA3
:1032F00010231DA219461E20009400F0D2FA1023BC
:103300001AA219465A20009400F0CBFA102319A2F1
:1033100020211820009400F0C4FA102318A23021B4
:103320001820009400F0BDFABDE8FC811748CDE9F3
:103330000054026803230021302000F07BFA144877
:10334000CDE9005403230268B9E700001000002013
:10335000940300200C000020583A0000533A00006B
:10336000080000202D2D3E00786961005368616ED1
:1033700067000000416E676C655F41646400000097
:10338000416E676C655F44656700000004000020C3
:10339000000000202DE9FC413848374E02683168B2
:1033A0005163374F0068396801640124102335A246
:1033B00000212020009400F074FA102332A2002192
:1033C0004E20009400F06DFA304810250068012866
:1033D00042D0CDE90054042300213020326800F0AF
:1033E00029FACDE900543A6804230021602000F056
:1033F00021FA0021102304220846009400F0B2F9BB
:103400001023052200211846009400F0ABF9102388
:103410001FA219460020009400F043FA10231DA2B9
:1034200019461E20009400F03CFA10231AA21946F7
:103430005A20009400F035FA102319A220211820F8
:10344000009400F02EFA102318A2302118200094C6
:1034500000F027FABDE8FC811748CDE90054026866
:1034600003230021302000F0E5F91448CDE9005491
:1034700003230268B9E70000100000209403002035
:103480000C000020583A0000533A000008000020C9
:103490002D2D3E00786961005368616E6700000061
:1034A000416E676C655F416464000000416E676C4B
:1034B000655F4465670000000400002000000020F4
:1034C000FEE7000030B40021084B0A465FF0000020
:1034D00003EBC004401CC0B262548028F8D3491CDE
:1034E000C9B20829F2D330BC00F096B838050020E4
:1034F00030B5CC0801F0070301259D40EBB2064D25
:1035000005EBC005C808285C0AB1184302E063EA6D
:103510000000C043285530BD3805002010B50021FB
:10352000AE2000F0DCF90021084600F0D8F90021B7
:10353000102000F0D4F90021402000F0D0F9002143
:10354000812000F0CCF90021CF2000F0C8F9002143
:10355000A12000F0C4F90021C82000F0C0F900212A
:10356000A62000F0BCF90021A82000F0B8F9002145
:103570003F2000F0B4F90021D32000F0B0F9002181
:10358000084600F0ACF90021D52000F0A8F9002190
:10359000802000F0A4F90021D92000F0A0F900213A
:1035A000F12000F09CF90021DA2000F098F90021C8
:1035B000122000F094F90021DB2000F090F90021A6
:1035C000402000F08CF90021202000F088F9002133
:1035D000022000F084F900218D2000F080F9002104
:1035E000142000F07CF90021A42000F078F90021DB
:1035F000A62000F074F9FFF765FF0021BDE8104038
:10360000AF2000F06CB90246012000E05043491E93
:10361000C9B2FBD27047000070B5184E002400BF3D
:1036200004F1B000C0B2002100F059F900210846B1
:1036300000F055F90021102000F051F9FFF708F9CA
:10364000782000F025FDFFF73BF9402000F020FD39
:10365000FFF736F95FF0000506EBC500005D00F0EE
:1036600017FDFFF72DF96D1CEDB2802DF4D3FFF798
:103670000FF9641CE4B2082CD2D370BD38050020C9
:103680002DE9FC4F1C460E4682468B460190082BC6
:103690000ED0600700D0012000EBD400610810FBC1
:1036A00001F0C0B28146203AD0B2009000204AE03A
:1036B0000620F7E7082C12D00C2C17D0102C1AD0AB
:1036C000182C43D10098234900EBC00001EB800186
:1036D000002711F80850E80712D00B9A13E0009861
:1036E0001D4900EB400001EB4001F1E700981B4948
:1036F00000EB4000EAE71A49009801EB0011E7E708
:103700000B9828B3002231465046FFF7F1FE761C95
:103710007F1C6D08FFB2F6B2082FDCD30AF101005E
:1037200000F0FF0A082C0AD00199AAEB0100B0EBC7
:10373000540F04D10BF108008A4600F0FF0B08F18A
:1037400001005E46C0B280464845B3D3BDE8FC8F59
:103750000122D8E7B46E000828620008506400080F
:10376000C46800082DE9FF4F81B08146009098465B
:103770000E468B46580701D0012100E0002101EBE5
:10378000D80111FB08FA002449E000BFB8F1100F7E
:1037900012D0B8F1180F14D0B8F1200F19D0B8F129
:1037A000400F3ED12149039801EB40200027055DE1
:1037B000E80714D00E9A15E01D49039801EB40105C
:1037C000F4E70398194900EBC000C83901EBC000C9
:1037D000ECE716490398803901EBC010E6E70E9834
:1037E00010B3002231464846FFF782FE761C7F1C4C
:1037F0006D08FFB2F6B2082FDAD309F10100009983
:1038000000F0FF09A9EB0101414505D10BF10800CA
:10381000DDF8009000F0FF0B641C5E46A4B2544536
:10382000B4D305B0BDE8F08F0122DBE7987E000835
:10383000107C00082DE9F84F0025DDE90A691F46D4
:1038400092468B468046082E00D1022500241CE0BB
:10385000381B401EC1B20A20FFF7D5FEBAFBF0F0BC
:103860000A21B0FBF1F201FB1200CDF8009080B10B
:103870003030C2B205EB560101FB0480C0B23346C2
:103880005946FFF7FDFE641CE4B2BC42E0D3BDE83C
:10389000F88F05EB560101FB0480C0B2334630229D
:1038A000EEE72DE9F8411E46154688460446079F77
:1038B0000BE03346414620460097FFF7E1FE082E15
:1038C0000AD004EB5600C4B26D1C2A78A2F1200085
:1038D0005E28EED9BDE8F881A41DE4B2F4E770B526
:1038E0000C460546FEF7B4FF782000F0D1FBFEF74A
:1038F000E7FF0CB1402000E0002000F0C9FBFEF71C
:10390000DFFF284600F0C4FBFEF7DAFFBDE8704099
:10391000FEF7BEBF38B5012410230EA220210020DF
:103920000094FFF7BEFF10230BA200212820009473
:10393000FFF7B7FF10230BA2194618200094FFF7DA
:10394000B0FF102309A2202118200094FFF7A9FF3F
:1039500038BD00002D2D3E00526564206F70656EED
:103960003F00000052696768740000006F666600DF
:1039700038B5012410230EA2194600200094FFF749
:1039800090FF10230BA2002128200094FFF789FF4D
:1039900010230BA2194618200094FFF782FF102372
:1039A00009A2202118200094FFF77BFF38BD0000FA
:1039B0002D2D3E00526564206F70656E3F00000043
:1039C00052696768740000006F6666002DE9FC4765
:1039D000DFF8B4802D4EDFF8B890B8F800002D4D18
:1039E0002D4C00044FF0010A4FF000071CD5287839
:1039F0002B2817D12068697806EBC00246F83010F2
:103A0000A978401C5160206014280BD11422314643
:103A10006846276002F079F9DDE90012C9E9001271
:103A2000C4F804A0A8F800701C480088000429D538
:103A30004FF400511A48FDF7DEFC28780D2821D1FB
:103A40001248697820380160A9784160E878E06020
:103A50002879A0602068A97906EBC00246F83010EA
:103A6000E979401C5160206014280BD114220749C9
:103A70006846276002F049F9DDE90012C9E9001241
:103A8000C4F804A0BDE8FC8776000020680B002085
:103A90005C0000201C0A0020780300207800002031
:103AA000000802401F49204B002048605A68886087
:103AB000C8600861DFED1D0A0A6048619FED1C0ABD
:103AC000C1ED060A81ED070A81ED080A243148603C
:103AD0001B688860C86008610B604861C1ED060A18
:103AE00081ED070A81ED080A2431F7EE000AC1E9E9
:103AF00000308860C8600861486181ED060A81ED88
:103B0000070A81ED080A2431C1E900208860C860F5
:103B100008614861C1ED060A81ED070A81ED080AD6
:103B200070470000080C0020880300206666A63F4E
:103B30000000000041600268511A8160491C02299E
:103B400001D800218160026981680A4402610A2A61
:103B500002DD0A22026104E06FF009039A4200DAF2
:103B6000036100EE101AD0ED060A90ED071AB8EEC8
:103B7000C00AC2688A1A20EE800AD0ED040AF8EE64
:103B8000E00A01EE200A00EE902A90ED081AC160CA
:103B9000F8EEE00A01EE200ABDEEC00A10EE102A8F
:103BA0001046704741600268511A8160491C022921
:103BB00001D800218160026981680A4402610A2AF1
:103BC00002DD0A22026104E06FF009039A4200DA82
:103BD000036100EE101AD0ED060A90ED071AB8EE58
:103BE000C00AC2688A1A20EE800AD0ED040AF8EEF4
:103BF000E00A01EE200A00EE902A90ED081AC1605A
:103C0000F8EEE00A01EE200ABDEEC00A10EE102A1E
:103C1000104670477047000038B50124102315A2E4
:103C2000194600200094FFF73CFE102302220021D9
:103C300028200094FFF796FD10230322002138204E
:103C40000094FFF78FFD10230BA200214820009461
:103C5000FFF727FE102309A2194618200094FFF74A
:103C600020FE102307A2202118200094FFF719FE40
:103C700038BD00002D2D3E003F00000052696768EE
:103C8000740000006261636B0000000038B501241D
:103C9000102311A2202100200094FFF702FE102320
:103CA0000222002128200094FFF75CFD102303224C
:103CB000002138200094FFF755FD102307A20021B2
:103CC00048200094FFF7EDFD102305A220211820C5
:103CD0000094FFF7E6FD38BD2D2D3E003F000000AB
:103CE0006261636B0000000038B5012410231CA240
:103CF000302100200094FFF7D4FD0021102319A2E9
:103D000008460094FFF7CDFD102304221946182021
:103D10000094FFF727FD1023052219462820009460
:103D2000FFF720FD10230622194638200094FFF7E4
:103D300019FD10230722194648200094FFF712FDB1
:103D400010230AA2202118200094FFF7AAFD1023B7
:103D500008A2302118200094FFF7A3FD38BD000011
:103D60002D2D3E004D656E75000000005465787481
:103D700000000000526564007CB50124002110237E
:103D800028A208460094FFF78CFD102326A20021EC
:103D900020200094FFF785FD102324A200214E204F
:103DA0000094FFF77EFD10252148CDE900540268FC
:103DB000042300213020FFF73DFD1E48CDE90054CB
:103DC0000268042300216020FFF734FD10231AA2AB
:103DD000302100200094FFF764FD102317A219463C
:103DE0001E200094FFF75DFD102316A219465A20ED
:103DF0000094FFF756FD102314A220211E200094EA
:103E0000FFF74FFD102312A220215A200094FFF744
:103E100048FD10230FA230211E200094FFF741FD22
:103E20007CBD0000545F4300583A0000533A000044
:103E3000100000200C0000202D2D3E00585F555032
:103E400000000000595F555000000000585F44001A
:103E5000595F440053544F50000000007047000069
:103E60002DE9FC413448334E026831685163334FC9
:103E70000068396801640124102331A20021202048
:103E80000094FFF70EFD10232EA200214E20009477
:103E9000FFF707FD2C481025006801283BD0CDE92D
:103EA00000540423002130203268FFF7C3FCCDE921
:103EB00000543A68042300216020FFF7BBFC002176
:103EC0001023042208460094FFF74CFC102305221F
:103ED000002118460094FFF745FC10231BA2202167
:103EE00000200094FFF7DDFC102319A219465A2088
:103EF0000094FFF7D6FC102317A22021182000946D
:103F0000FFF7CFFC102317A2302118200094FFF7F1
:103F1000C8FCBDE8FC811648CDE9005402680323C3
:103F200000213020FFF786FC1248CDE9005403231E
:103F30000268C0E710000020940300200C0000205D
:103F4000583A0000533A0000080000202D2D3E0092
:103F50005368616E67000000416E676C655F416485
:103F600064000000416E676C655F44656700000097
:103F700004000020000000202DE9FC413448334EAD
:103F8000026831685163334F006839680164012465
:103F9000102331A2002120200094FFF782FC10237F
:103FA0002EA200214E200094FFF77BFC2C48102508
:103FB000006801283BD0CDE90054042300213020C3
:103FC0003268FFF737FCCDE900543A68042300213A
:103FD0006020FFF72FFC00211023042208460094E4
:103FE000FFF7C0FB10230522002118460094FFF7BD
:103FF000B9FB10231BA2302100200094FFF751FCD5
:10400000102319A219465A200094FFF74AFC1023E6
:1040100017A2202118200094FFF743FC102317A2B9
:10402000302118200094FFF73CFCBDE8FC811648C5
:10403000CDE900540268032300213020FFF7FAFB8A
:104040001248CDE9005403230268C0E710000020A5
:10405000940300200C000020583A0000533A00005E
:10406000080000202D2D3E005368616E670000009F
:10407000416E676C655F416464000000416E676C6F
:10408000655F446567000000040000200000002018
:1040900070B5104E05460024280601D5012200E027
:1040A000002202213046FDF7AEF9FEF725FC012281
:1040B00011463046FDF7A7F9FEF71EFC002201214C
:1040C0003046FDF7A0F96806641C050EE4B2082C22
:1040D000E2D370BD00040240FDF7A0B930B593B043
:1040E00030216846FCF7A6F814210CA8FCF7A2F8CA
:1040F0001D480025016841F080510160006800F012
:10410000805011901948016841F4804101600068B5
:10411000022400F4804011900120009000040190DE
:104120008001CDE9064008AA0420A82182E81300F6
:104130000B906846FDF7F6FA08B172B6FEE70CA9D7
:104140000F2081E831004FF4A0500F904FF48050C1
:10415000109005210CA8FDF7FBF9002801D072B6DC
:10416000FEE713B030BD0000403802400070004050
:104170000248016841F470010160704788ED00E079
:104180000148FDF706BE0000DC030020F0B5026820
:10419000254C264D264E274F274B4FF0804CA042F2
:1041A00009D0604507D0A84205D0B04203D0B8423C
:1041B00001D0984204D122F0700E4A6842EA0E0201
:1041C000A0421BD0604519D0A84217D0B04215D0EC
:1041D000B84213D0984211D0184DA8420ED0184DB5
:1041E000A8420BD0174DA84208D0174DA84205D0C1
:1041F000164DA84202D0164DA84203D122F44075B4
:10420000CA682A434D6922F080022A4302608A6804
:10421000C2620A688262A04201D0984201D1096953
:10422000016301214161F0BD000001400004004034
:1042300000080040000C0040000401400040014024
:10424000004401400048014000180040001C0040AC
:104250000020004010B501F01F030121046A9940BD
:104260008C430462016A9A401143016210BD10B58B
:10427000846842EA032224F47F440A432243826092
:1042800010BD826822F070020A4342F0070181608B
:1042900070470000F0B5026A22F001020262036A70
:1042A00042688469124E24F073050C682C4323F095
:1042B00002058B682B430D4DA84201D0B04205D1B9
:1042C00023F00807CB683B4323F00403A84201D046
:1042D000B04205D14D6922F4407215438A692A43E0
:1042E00042608461496841630362F0BD000001409F
:1042F00000040140F0B5026A22F010020262026A74
:10430000436884690D6824F4E64444EA05248D6812
:1043100022F0200242EA05120F4D104EA84201D0B1
:10432000B04206D1CF6822F0800242EA071222F0A2
:104330004002A84201D0B04207D14D6923F4406346
:1043400043EA85038D6943EA8503436084614968D4
:1043500081630262F0BD00000000014000040140E2
:10436000F0B5026A22F480720262026A4368C4698C
:1043700022F4007224F073050C68124E2C438D68F1
:1043800042EA05220E4DA84201D0B04206D1CF68C4
:1043900022F4006242EA072222F48062A84201D09D
:1043A000B04207D14D6923F4405343EA05138D69A8
:1043B00043EA05134360C4614968C1630262F0BD0A
:1043C000000001400004014030B5026A22F480522E
:1043D0000262046A4268C3690D6823F4E64343EA53
:1043E00005238D6824F4005444EA0534084DA8429E
:1043F00002D0084DA84204D14D6922F4804242EA1D
:1044000085124260C36149680164046230BD0000E6
:10441000000001400004014010B5036A046A24F062
:1044200001040462846924F0F00444EA021423F0D5
:104430000A020A438461026210BD10B5036A23F0C8
:10444000100303628369046A23F4704343EA02326F
:1044500024F0A00343EA01118261016210BD000053
:104460007CB501240021102324A208460094FFF704
:1044700018FA102322A2002120200094FFF711FA3D
:10448000102320A200214E200094FFF70AFA1025E5
:104490001D48CDE900540268042300213020FFF7B5
:1044A000C9F91A48CDE900540268042300216020AC
:1044B000FFF7C0F9102316A219461E200094FFF73B
:1044C000F0F9102314A219465A200094FFF7E9F9D5
:1044D000102313A220211E200094FFF7E2F91023DD
:1044E00010A220215A200094FFF7DBF910230EA21E
:1044F00030211E200094FFF7D4F97CBD545F4300A7
:10450000583A0000533A0000100000200C00002030
:10451000585F555000000000595F555000000000E2
:10452000585F4400595F440053544F50000000004E
:104530007CB501240021102328A208460094FFF72F
:10454000B0F9102326A2002120200094FFF7A9F93A
:10455000102324A200214E200094FFF7A2F9102579
:104560002148CDE900540268042300213020FFF7E0
:1045700061F91E48CDE9005402680423002160203F
:10458000FFF758F910231AA2194600200094FFF7EC
:1045900088F9102317A219461E200094FFF781F90D
:1045A000102316A219465A200094FFF77AF9102317
:1045B00014A220211E200094FFF773F9102312A2E9
:1045C00020215A200094FFF76CF910230FA230210C
:1045D0001E200094FFF765F97CBD0000545F430086
:1045E000583A0000533A0000100000200C00002050
:1045F0002D2D3E00585F555000000000595F55506A
:1046000000000000585F4400595F440053544F506D
:10461000000000007CB501240021102328A20846D8
:104620000094FFF73EF9102326A2002120200094D9
:10463000FFF737F9102324A200214E200094FFF742
:1046400030F910252148CDE90054026804230021E7
:104650003020FFF7EFF81E48CDE90054026804232C
:1046600000216020FFF7E6F810231AA22021002085
:104670000094FFF716F9102317A219461E20009484
:10468000FFF70FF9102316A219465A200094FFF7DE
:1046900008F9102314A220211E200094FFF701F92D
:1046A000102312A220215A200094FFF7FAF81023B9
:1046B0000FA230211E200094FFF7F3F87CBD00000C
:1046C000545F4300583A0000533A000010000020A5
:1046D0000C0000202D2D3E00585F555000000000BA
:1046E000595F555000000000585F4400595F440076
:1046F00053544F50000000007CB5012400211023CA
:1047000028A208460094FFF7CCF8102326A2002127
:1047100020200094FFF7C5F8102324A200214E208A
:104720000094FFF7BEF810252148CDE90054026837
:10473000042300213020FFF77DF81E48CDE9005406
:104740000268042300216020FFF774F810231AA2E6
:10475000194636200094FFF7A4F8102317A2194633
:104760001E200094FFF79DF8102316A219465A2028
:104770000094FFF796F8102314A220211E20009425
:10478000FFF78FF8102312A220215A200094FFF780
:1047900088F810230FA230211E200094FFF781F823
:1047A0007CBD0000545F4300583A0000533A0000BB
:1047B000100000200C0000202D2D3E00585F5550A9
:1047C00000000000595F555000000000585F440091
:1047D000595F440053544F50000000007CB5012441
:1047E0000021102328A208460094FFF75AF810234E
:1047F00026A2002120200094FFF753F8102324A2C2
:1048000000214E200094FFF74CF810252148CDE9F7
:1048100000540268042300213020FFF70BF81E48E3
:10482000CDE900540268042300216020FFF702F85C
:1048300010231AA2202136200094FFF732F810230B
:1048400017A219461E200094FFF72BF8102316A27A
:1048500019465A200094FFF724F8102314A22021AF
:104860001E200094FFF71DF8102312A220215A20C9
:104870000094FFF716F810230FA230211E20009499
:10488000FFF70FF87CBD0000545F4300583A00006A
:10489000533A0000100000200C0000202D2D3E0097
:1048A000585F555000000000595F5550000000004F
:1048B000585F4400595F440053544F5000000000BB
:1048C00038B501240021102310A208460094FEF7F9
:1048D000E8FF10230FA2302100200094FEF7E1FF33
:1048E00010230DA2194628200094FEF7DAFF1023AA
:1048F0000CA2202128200094FEF7D3FF10230BA246
:10490000302128200094FEF7CCFF38BD5465737425
:10491000000000002D2D3E005849414F5F59616E47
:1049200000000000424B5F5449414F005449414F41
:104930005F5A68656E67000010B5806B0021C18505
:10494000C184FDF7ABFC10BD01680C3151E8002FAC
:1049500022F4907241E80023002BF5D10168143154
:1049600051E8002F22F0010241E80023002BF5D18D
:10497000016B012909D101680C3151E8002F22F0A7
:10498000100241E80023002BF5D1202180F83E10D1
:1049900000210163704708B590F83E10222901D02C
:1049A000022008BD82684FF480539A4201D1016908
:1049B00021B1816A9A421BD04AB10AE00268816A39
:1049C0005268C2F308020A80816A891C08E0026901
:1049D00072B10268526802F07F020A70816A491C53
:1049E0008162C18D491E0904090CC18503D019E0FB
:1049F00002685268F1E70168CA6822F02002CA60C2
:104A00000168CA6822F48072CA6001684A6922F0AB
:104A100001024A61202180F83E10016B012903D078
:104A2000FDF748FE002008BD0021016301680C313C
:104A300051E8002F22F0100241E80023002BF5D1AD
:104A400001680A68D20602D50A6849680091818D1A
:104A5000FDF723FCE6E7000070B504460068016935
:104A6000E26821F44051114301612169A068E269C3
:104A700008436169114308432168CA6849F20C631D
:104A80009A430243CA6020684169A26921F44071D7
:104A90001143416131492068884202D0304988423F
:104AA00002D1FCF7FFFD01E0FCF7ECFDE269002319
:104AB000192164253226B2F5004F626828D0A0FB88
:104AC0000101930F9200FBF77DFB0146B0FBF5F06F
:104AD0006FF01802504301EB800006EB0010B0FBB2
:104AE000F5F000F0F002B1FBF5F002EB0012B1FBC3
:104AF000F5F06FF01803584301EB800006EB00104F
:104B0000B0FBF5F000F00F0021681044886070BD24
:104B1000A0FB010192185B41FBF754FB0146B0FB7F
:104B2000F5F00201B1FBF5F06FF01803584301EB0B
:104B3000800006EBC000B0FBF5F000F0F80002EBDF
:104B40004002B1FBF5F0584301EB800006EBC000DA
:104B5000B0FBF5F000F00700D6E7000000100140C0
:104B60000014014081628285C285002101642222F5
:104B700080F83E2080F83C10016921B10168CA68C4
:104B800042F48072CA6001684A6942F001024A61D7
:104B90000068C16841F02001C160002070472DE924
:104BA000F041984617460E460446069D27E0681CCD
:104BB00025D02DB1FCF72CFCA0EB0800A8421ED993
:104BC00020680C3050E8001F21F4D07140E800123A
:104BD000002AF5D12068143050E8001F21F00101AF
:104BE00040E80012002AF5D1202084F83D0084F826
:104BF0003E00002084F83C000320BDE8F0812068DE
:104C0000006836EA000004D00020B842CFD000206F
:104C1000F3E70120F9E700000148FDF741BB000080
:104C20006C0400200148FDF73BBB0000B0040020ED
:104C30000148FDF735BB0000F4040020FEE700004A
:104C40002DE9FC413448334E026831685163334FDB
:104C50000068396801640124102331A2002120205A
:104C60000094FEF71EFE10232EA200214E20009479
:104C7000FEF717FE2C481025006801283BD0CDE92F
:104C800000540423002130203268FEF7D3FDCDE923
:104C900000543A68042300216020FEF7CBFD002178
:104CA0001023042208460094FEF75CFD1023052221
:104CB000002118460094FEF755FD10231BA2202169
:104CC00000200094FEF7EDFD102319A219461E20C6
:104CD0000094FEF7E6FD102316A220211820009470
:104CE000FEF7DFFD102316A2302118200094FEF7F6
:104CF000D8FDBDE8FC811548CDE9005402680323C6
:104D000000213020FEF796FD1148CDE90054032321
:104D10000268C0E710000020940300200C0000206F
:104D2000583A0000533A0000080000202D2D3E00A4
:104D300078696100416E676C655F416464000000E2
:104D4000416E676C655F44656700000004000020E9
:104D5000000000202DE9FC413448334E02683168E0
:104D60005163334F0068396801640124102331A274
:104D7000002120200094FEF794FD10232EA2002194
:104D80004E200094FEF78DFD2C4810250068012868
:104D90003BD0CDE900540423002130203268FEF7D7
:104DA00049FDCDE900543A68042300216020FEF754
:104DB00041FD00211023042208460094FEF7D2FC96
:104DC00010230522002118460094FEF7CBFC102387
:104DD0001BA2302100200094FEF763FD102319A2CE
:104DE00019461E200094FEF75CFD102316A2202118
:104DF00018200094FEF755FD102316A2302118202C
:104E00000094FEF74EFDBDE8FC811548CDE9005445
:104E10000268032300213020FEF70CFD1148CDE984
:104E2000005403230268C0E7100000209403002010
:104E30000C000020583A0000533A000008000020FF
:104E40002D2D3E0078696100416E676C655F41649D
:104E500064000000416E676C655F44656700000098
:104E600004000020000000207CB501240021102354
:104E700025A208460094FEF714FD102324A2002169
:104E800030200094FEF70DFD1025224ECDE9005490
:104E9000022300213E203268FEF7CCFCCDE900540D
:104EA0000223002164207268FEF7C4FC10231AA2BA
:104EB000002154200094FEF7F4FC102317A2194699
:104EC0001E200094FEF7EDFC102316A219465A206E
:104ED0000094FEF7E6FC102314A220211E2000946B
:104EE000FEF7DFFC102312A220215A200094FEF7C7
:104EF000D8FC10230FA230211E200094FEF7D1FC15
:104F00000E4804607CBD00005265645F43000000F1
:104F1000583A00005C000020593A00004C5F5550A0
:104F200000000000525F5550000000004C5F44003C
:104F3000525F440043656E746572000048000020B3
:104F40007CB501240021102327A208460094FEF717
:104F5000A8FC102326A2002130200094FEF7A1FC1B
:104F60001025244ECDE90054022300213E20326852
:104F7000FEF760FCCDE90054022300216420726832
:104F8000FEF758FC10231CA2002154200094FEF7C9
:104F900088FC102319A2202100200094FEF781FC38
:104FA000102317A219461E200094FEF77AFC102346
:104FB00015A219465A200094FEF773FC102314A280
:104FC00020211E200094FEF76CFC102311A220214A
:104FD0005A200094FEF765FC10230FA230211E20FA
:104FE0000094FEF75EFC7CBD5265645F43000000E8
:104FF000583A00005C000020593A00002D2D3E0078
:105000004C5F555000000000525F555000000000FA
:105010004C5F4400525F440043656E74657200004B
:105020007CB501240021102327A208460094FEF736
:1050300038FC102326A2002130200094FEF731FC1A
:105040001025244ECDE90054022300213E20326871
:10505000FEF7F0FBCDE900540223002164207268C2
:10506000FEF7E8FB10231CA2002154200094FEF759
:1050700018FC102319A2194600200094FEF711FC19
:10508000102317A219461E200094FEF70AFC1023D5
:1050900015A219465A200094FEF703FC102314A20F
:1050A00020211E200094FEF7FCFB102311A22021DA
:1050B0005A200094FEF7F5FB10230FA230211E208A
:1050C0000094FEF7EEFB7CBD5265645F4300000078
:1050D000583A00005C000020593A00002D2D3E0097
:1050E0004C5F555000000000525F5550000000001A
:1050F0004C5F4400525F440043656E74657200006B
:105100007CB501240021102327A208460094FEF755
:10511000C8FB102326A2002130200094FEF7C1FB1B
:105120001025244ECDE90054022300213E20326890
:10513000FEF780FBCDE90054022300216420726851
:10514000FEF778FB10231CA2002154200094FEF7E8
:10515000A8FB102319A2202136200094FEF7A1FB02
:10516000102317A219461E200094FEF79AFB102365
:1051700015A219465A200094FEF793FB102314A29F
:1051800020211E200094FEF78CFB102311A2202169
:105190005A200094FEF785FB10230FA230211E2019
:1051A0000094FEF77EFB7CBD5265645F4300000007
:1051B000583A00005C000020593A00002D2D3E00B6
:1051C0004C5F555000000000525F55500000000039
:1051D0004C5F4400525F440043656E74657200008A
:1051E0007CB501240021102327A208460094FEF775
:1051F00058FB102326A2002130200094FEF751FB1B
:105200001025244ECDE90054022300213E203268AF
:10521000FEF710FBCDE900540223002164207268E0
:10522000FEF708FB10231CA2002154200094FEF777
:1052300038FB102319A2194636200094FEF731FBE3
:10524000102317A219461E200094FEF72AFB1023F4
:1052500015A219465A200094FEF723FB102314A22E
:1052600020211E200094FEF71CFB102311A22021F8
:105270005A200094FEF715FB10230FA230211E20A8
:105280000094FEF70EFB7CBD5265645F4300000096
:10529000583A00005C000020593A00002D2D3E00D5
:1052A0004C5F555000000000525F55500000000058
:1052B0004C5F4400525F440043656E7465720000A9
:1052C00038B501240021102310A208460094FEF7EF
:1052D000E8FA10230FA2302100200094FEF7E1FA33
:1052E00010230DA2194628200094FEF7DAFA1023A5
:1052F0000DA2202128200094FEF7D3FA10230DA23E
:10530000302128200094FEF7CCFA38BD5465737420
:10531000000000002D2D3E004269616E4B75616EEC
:10532000675F526F61640000426C616E6B5F526F29
:10533000616400005849414F5F59616E00000000F0
:105340000FB4054B10B503A9044A029800F05AF9AE
:1053500010BC5DF814FB0000695D0008900300209C
:105360000907090E002804DB00F1E02080F8001492
:10537000704700F00F0000F1E02080F8141D704726
:1053800010B52DED020B2DED088B84B09DED0C0BAF
:1053900051EC100BFBF7B6F941EC180B9DED0C0B23
:1053A00053EC182B51EC100BFAF7F0FF41EC190BF2
:1053B0000D989FED290B10F0004F53EC102B51EC82
:1053C000190B9FED21AB9FED22BB0ED0FBF7F6F939
:1053D0000ED953EC1B2B51EC190BFBF707FA1CD21F
:1053E00014E000BF41EC180B17E0FBF7E7F906D219
:1053F00053EC1A2B51EC180BFAF7C8FFF2E753ECF9
:105400001B2B51EC190BFBF7F1F906D853EC1A2BB7
:1054100051EC180BFAF719FFE4E78DED028B9DEDC7
:105420000C0B18EE901A10EE900A8DED000B61F344
:105430001E0003909DED020B04B0BDEC088B02B082
:1054400010BD000000000000000000000000F03F60
:10545000000000000000E03F000000000000E0BF8E
:1054600002E008C8121F08C1002AFAD1704770472D
:10547000002001E001C1121F002AFBD1704700008B
:105480002DE9FF5F82B00021DDE90430020DDDF877
:1054900040B0034318D044F61050A2F2FF3242430A
:1054A0001514119801281FD0A5EB0B00401C5FEAD2
:1054B000000A4FF000064E4FDFF83891B0465046D4
:1054C00015D5CAF1000413E0119801244AA301285C
:1054D00001D16FEA0B010298119AC0E90031C0E9CD
:1054E000024206B0BDE8F09FCBF10000DFE70446C2
:1054F0000021404A491842EB0450CDE9001012E067
:10550000E00707D032463B4640464946FAF744FF9B
:105510008046894632463B4610461946FAF73CFF1C
:1055200006460F466410002CEAD1DDE90401DDE9EE
:105530000023BAF1000F06DAFAF72EFF42464B4677
:10554000FAF72AFF05E0FBF76DF842464B46FBF7FA
:1055500069F804460E460022284BFBF747F903D8AA
:105560004FF0FF30014607E00022254B2046314630
:10557000FAF76BFEFBF70AF9102409E0002C0ADBAE
:105580000A220023FAF71EFE039B30321A55641ECE
:1055900050EA0102F2D1641C039AC4F111031444CD
:1055A000119A012A03D0012208430DD10AE00843D1
:1055B00004D000204FF0110B119072E7A3EB0B0504
:1055C0006D1E0DE05B4504DD4FF0000205F10105A5
:1055D00004E003DA4FF00002A5F10105002AECD047
:1055E00002981199C0E90231C0E9004579E700004D
:1055F000000014400000F03F300000000000F043C5
:105600000000E03F2DE9FF4F95B09A4688460646D8
:105610000025EEE1252877D100242746F94A01210B
:10562000039400E0044316F8013F203B01FA03F025
:105630001042F7D130782A2811D06FF02F0330783C
:10564000A0F13002092A16D8039A44F0020402EBB2
:10565000820203EB42021044761C0390EFE758F8F5
:10566000042B0392002A03DA504244F400540390BE
:1056700044F00204761C30782E2816D116F8010F5B
:1056800044F004042A280DD06FF02F023078A0F1E6
:105690003003092B09D807EB870302EB4303C71834
:1056A000761CF3E758F8047B761C30786C280FD012
:1056B00006DC4C2817D068280DD06A2814D104E0E5
:1056C000742810D07A280FD10DE044F400140AE0B9
:1056D00044F4801401E044F440147278824202D110
:1056E00004F58014761C761C307866280BD013DC09
:1056F000582877D009DC002875D04528F6D04628F0
:10570000F4D047281AD193E118E0632835D06428F3
:1057100079D0652812D18BE1702873D008DC672816
:10572000F1D069286FD06E280DD06F2806D1ACE07B
:1057300073282CD0752874D0782853D052461799E6
:1057400090476D1C54E1C4F30250022809D003288D
:105750000DD0D8F8001004280DD00D6008F1040811
:1057600046E1D8F80010EA17C1E90052F6E7D8F888
:1057700000100D80F2E70D70F0E718F8041B8DF8AB
:10578000001000208DF80100EB46012003E058F8DE
:1057900004BB4FF0FF3061074FF0000102D40DE071
:1057A00009F101018946B9420FDA8145F8DB1BF89E
:1057B00009100029F4D108E009F10101894681426C
:1057C000FADB1BF809100029F6D103985346A0EB29
:1057D000090721463846179A00F080FA284400EB62
:1057E000090507E044E008E10DE01BF8010B524613
:1057F00017999047B9F10109F7D253462146384627
:10580000179AF2E039E00A21C4F302524FF0000B7C
:105810000091022A06D058F8040BC117032A09D0B8
:105820000AE023E008F1070020F00702F2E8020195
:10583000904605E000B2C117042A01D140B2C11759
:10584000002906DA0A460021404261EB02012D22BE
:1058500002E0220504D52B228DF80420012203E06A
:10586000E20701D02022F7E7914657E00A2100E045
:1058700010214FF0000B00910BE010214FF0000BB6
:1058800044F004040827009103E008204FF0000BC7
:105890000090C4F30252022A05D058F8040B0021EC
:1058A000032A08D008E008F1070020F00702F2E818
:1058B0000201904603E080B2042A00D1C0B24FF04A
:1058C000000922072AD53278702A07D0DDF800C0F7
:1058D0008CF0100C5CEA0B0C05D00EE040228DF829
:1058E0000420012208E050EA010306D030238DF89D
:1058F00004308DF8052002229146009B83F00803B6
:1059000053EA0B030AD150EA010201D1620705D51F
:1059100030228DF804204FF001097F1E3278582A7A
:1059200004D039A20C920CAA02920BE03BA2F9E738
:105930005B46009AFAF746FC0C9B9B5C029A521E4F
:105940000292137050EA0102F2D1029804A9081AD7
:1059500000F1200B600702D524F4803400E0012719
:105960005F4502DDA7EB0B0000E0002000EB0B0120
:10597000009003984944401A0390E00306D453462C
:105980002146179A039800F0A9F90544002706E07C
:1059900001A85246C05D179990476D1C7F1C4F456A
:1059A000F6DBE0030CD553462146179A039800F026
:1059B00095F9054404E030205246179990476D1C34
:1059C0000099481E00900029F5DC08E00298029931
:1059D00052460078491C0291179990476D1CBBF103
:1059E0000001ABF1010BF1DC5BE100F065F905446E
:1059F000761C307800287FF40DAE19B02846BDE83B
:105A0000F08F000009280100303132333435363749
:105A100038396162636465660000000030313233FA
:105A2000343536373839414243444546000000009A
:105A3000600700D4062708F1070020F00700F0E80F
:105A40000223804603F0004C5FEA0C0001D097A0CF
:105A500009E0200501D596A005E0E00701D095A05A
:105A600001E0AFF24C001390307823F0004365283A
:105A70000CD006DC452809D046281DD047287FD108
:105A80003BE0662818D067287AD136E00021112F34
:105A900001DB112000E0781CCDE9000104A90CA86D
:105AA000FFF7EEFCDDE90D010C9A4FF0000B07F15A
:105AB0000109109200914EE04FF000400097CDE9AF
:105AC000011004A90CA8FFF7DBFCDDE90D020C9B1B
:105AD0000F994FF0000B91461093009211B9791C69
